{
  "contractName": "Registration",
  "abi": [
    {
      "inputs": [],
      "payable": false,
      "stateMutability": "nonpayable",
      "type": "constructor"
    },
    {
      "anonymous": false,
      "inputs": [
        {
          "indexed": false,
          "internalType": "address",
          "name": "userAddress",
          "type": "address"
        },
        {
          "indexed": false,
          "internalType": "string",
          "name": "name",
          "type": "string"
        },
        {
          "indexed": false,
          "internalType": "uint8",
          "name": "age",
          "type": "uint8"
        }
      ],
      "name": "NewUser",
      "type": "event"
    },
    {
      "anonymous": false,
      "inputs": [
        {
          "indexed": false,
          "internalType": "address",
          "name": "userAddress",
          "type": "address"
        },
        {
          "indexed": false,
          "internalType": "uint256",
          "name": "value",
          "type": "uint256"
        }
      ],
      "name": "NewValue",
      "type": "event"
    },
    {
      "constant": true,
      "inputs": [],
      "name": "owner",
      "outputs": [
        {
          "internalType": "address",
          "name": "",
          "type": "address"
        }
      ],
      "payable": false,
      "stateMutability": "view",
      "type": "function"
    },
    {
      "constant": true,
      "inputs": [
        {
          "internalType": "address",
          "name": "",
          "type": "address"
        }
      ],
      "name": "users",
      "outputs": [
        {
          "internalType": "string",
          "name": "name",
          "type": "string"
        },
        {
          "internalType": "uint8",
          "name": "age",
          "type": "uint8"
        },
        {
          "internalType": "bool",
          "name": "registered",
          "type": "bool"
        }
      ],
      "payable": false,
      "stateMutability": "view",
      "type": "function"
    },
    {
      "constant": false,
      "inputs": [
        {
          "internalType": "address",
          "name": "_address",
          "type": "address"
        },
        {
          "internalType": "string",
          "name": "_name",
          "type": "string"
        },
        {
          "internalType": "uint8",
          "name": "_age",
          "type": "uint8"
        }
      ],
      "name": "registerUser",
      "outputs": [],
      "payable": false,
      "stateMutability": "nonpayable",
      "type": "function"
    },
    {
      "constant": false,
      "inputs": [
        {
          "internalType": "uint256",
          "name": "_value",
          "type": "uint256"
        }
      ],
      "name": "send",
      "outputs": [],
      "payable": false,
      "stateMutability": "nonpayable",
      "type": "function"
    }
  ],
  "bytecode": "0x608060405234801561001057600080fd5b50336000806101000a81548173ffffffffffffffffffffffffffffffffffffffff021916908373ffffffffffffffffffffffffffffffffffffffff1602179055506107fe806100606000396000f3fe608060405234801561001057600080fd5b506004361061004c5760003560e01c806381efad24146100515780638da5cb5b14610139578063a52c101e14610183578063a87430ba146101b1575b600080fd5b6101376004803603606081101561006757600080fd5b81019080803573ffffffffffffffffffffffffffffffffffffffff169060200190929190803590602001906401000000008111156100a457600080fd5b8201836020820111156100b657600080fd5b803590602001918460018302840111640100000000831117156100d857600080fd5b91908080601f016020809104026020016040519081016040528093929190818152602001838380828437600081840152601f19601f820116905080830192505050505050509192919290803560ff169060200190929190505050610286565b005b6101416104ec565b604051808273ffffffffffffffffffffffffffffffffffffffff1673ffffffffffffffffffffffffffffffffffffffff16815260200191505060405180910390f35b6101af6004803603602081101561019957600080fd5b8101908080359060200190929190505050610511565b005b6101f3600480360360208110156101c757600080fd5b81019080803573ffffffffffffffffffffffffffffffffffffffff169060200190929190505050610648565b60405180806020018460ff1660ff16815260200183151515158152602001828103825285818151815260200191508051906020019080838360005b8381101561024957808201518184015260208101905061022e565b50505050905090810190601f1680156102765780820380516001836020036101000a031916815260200191505b5094505050505060405180910390f35b6000809054906101000a900473ffffffffffffffffffffffffffffffffffffffff1673ffffffffffffffffffffffffffffffffffffffff163373ffffffffffffffffffffffffffffffffffffffff1614610348576040517f08c379a000000000000000000000000000000000000000000000000000000000815260040180806020018281038252601f8152602001807f4f6e6c79206f776e65722063616e207265676973746572206120757365722e0081525060200191505060405180910390fd5b60405180606001604052808381526020018260ff16815260200160011515815250600160008573ffffffffffffffffffffffffffffffffffffffff1673ffffffffffffffffffffffffffffffffffffffff16815260200190815260200160002060008201518160000190805190602001906103c4929190610724565b5060208201518160010160006101000a81548160ff021916908360ff16021790555060408201518160010160016101000a81548160ff0219169083151502179055509050507f04fa57b893b1c3dc318e342db752c035852d43e24481a0e21cce7bd5877f9617838383604051808473ffffffffffffffffffffffffffffffffffffffff1673ffffffffffffffffffffffffffffffffffffffff168152602001806020018360ff1660ff168152602001828103825284818151815260200191508051906020019080838360005b838110156104ab578082015181840152602081019050610490565b50505050905090810190601f1680156104d85780820380516001836020036101000a031916815260200191505b5094505050505060405180910390a1505050565b6000809054906101000a900473ffffffffffffffffffffffffffffffffffffffff1681565b60011515600160003373ffffffffffffffffffffffffffffffffffffffff1673ffffffffffffffffffffffffffffffffffffffff16815260200190815260200160002060010160019054906101000a900460ff161515146105da576040517f08c379a00000000000000000000000000000000000000000000000000000000081526004018080602001828103825260198152602001807f43616c6c6572206973206e6f7420726567697374657265642e0000000000000081525060200191505060405180910390fd5b7f7ecfc3facdaf96b974d20d3e0b1e6eeaf931f26e88598aaf589e2a9cf4cf991c3382604051808373ffffffffffffffffffffffffffffffffffffffff1673ffffffffffffffffffffffffffffffffffffffff1681526020018281526020019250505060405180910390a150565b6001602052806000526040600020600091509050806000018054600181600116156101000203166002900480601f0160208091040260200160405190810160405280929190818152602001828054600181600116156101000203166002900480156106f45780601f106106c9576101008083540402835291602001916106f4565b820191906000526020600020905b8154815290600101906020018083116106d757829003601f168201915b5050505050908060010160009054906101000a900460ff16908060010160019054906101000a900460ff16905083565b828054600181600116156101000203166002900490600052602060002090601f016020900481019282601f1061076557805160ff1916838001178555610793565b82800160010185558215610793579182015b82811115610792578251825591602001919060010190610777565b5b5090506107a091906107a4565b5090565b6107c691905b808211156107c25760008160009055506001016107aa565b5090565b9056fea265627a7a72315820c657fc06df5096a49927ad28f6798138e5f0307b18626e2a8e3ca5929e55ea5764736f6c63430005100032",
  "source": "pragma solidity >=0.4.22 <0.7.0;\n\n/// @title Registration\n/// @author Muhammad Yahya\n/// @notice Implements a user registration system\n/// @dev rigister users and send random values\ncontract Registration {\n    /// @notice the address of contract owner\n    address public owner;\n\n    /// @notice create contract owner\n    /// @dev assign caller to contract owner\n    constructor() public {\n        owner = msg.sender;\n    }\n\n    /// @notice user registration details\n    struct User {\n        string name;\n        uint8 age;\n        bool registered;\n    }\n\n    /// @notice events fired for user registration and send values\n    event NewUser(address userAddress, string name, uint8 age);\n    event NewValue(address userAddress, uint256 value);\n\n    /// @notice map address to user info\n    mapping(address => User) public users;\n\n    /// @dev modifier to allow only owner to register new user\n    modifier onlyOwner {\n        require(msg.sender == owner, \"Only owner can register a user.\");\n        _;\n    }\n\n    /// @notice allows to register user\n    /// @dev only owner can register user\n    /// @param _address Ethereum address of user\n    /// @param _name name of user\n    /// @param _age age of user\n    function registerUser(\n        address _address,\n        string memory _name,\n        uint8 _age\n    ) public onlyOwner {\n        users[_address] = User(_name, _age, true);\n        emit NewUser(_address, _name, _age);\n    }\n\n    /// @notice send random values\n    /// @dev only registered users can send values\n    /// @param _value random value to send\n    function send(uint256 _value) public {\n        require(\n            users[msg.sender].registered == true,\n            \"Caller is not registered.\"\n        );\n        emit NewValue(msg.sender, _value);\n    }\n}\n",
  "sourcePath": "/home/yahya/Documents/GitHub/dApp-nodeJS-webpack/app/contracts/Registration.sol",
  "compiler": {
    "name": "solc",
    "version": "0.5.16+commit.9c3226ce.Emscripten.clang"
  },
  "schemaVersion": "3.2.4",
  "updatedAt": "2020-09-02T21:23:23.019Z",
  "networkType": "ethereum",
  "devdoc": {
    "author": "Muhammad Yahya",
    "details": "rigister users and send random values",
    "methods": {
      "constructor": {
        "details": "assign caller to contract owner"
      },
      "registerUser(address,string,uint8)": {
        "details": "only owner can register user",
        "params": {
          "_address": "Ethereum address of user",
          "_age": "age of user",
          "_name": "name of user"
        }
      },
      "send(uint256)": {
        "details": "only registered users can send values",
        "params": {
          "_value": "random value to send"
        }
      }
    },
    "title": "Registration"
  },
  "userdoc": {
    "methods": {
      "constructor": "create contract owner",
      "registerUser(address,string,uint8)": {
        "notice": "allows to register user"
      },
      "send(uint256)": {
        "notice": "send random values"
      }
    },
    "notice": "Implements a user registration system"
  }
}